:100000003828FF3FFF3FFF3F033003138312AB004D
:10001000FF30AA00AB0B0D281028AA0B0D280A28C8
:100020009630AA00AA0B12280000080003138312BE
:100030008E018F0101300C0290000030031C013F43
:100040000D0291000F081102031D28280E0810024E
:10005000031C372804200F081106031D312810083F
:100060000E06031937288E0A03198F0A2228080062
:10007000FF30031383168500860183120610861451
:1000800001300505A1002108003A031D4D28F43078
:100090008C0001308D001620512801308C008D011C
:1000A00016200614861001300505A1002108003A2B
:1000B000031D6028F4308C0001308D001620642868
:1000C00001308C008D0116203D286528FF3FFF3F41
:02400E00FB3F76
:00000001FF
