:10000000852AFF3FFF3FFF3FFF00030E8301EA0009
:100010000408E9000A08EB008A0171088316AE00A3
:100020007008AD00013083120705F2007208031951
:10003000512800308B190130F30001300B05F2001C
:1000400072087305F0007008031950280608EC00C8
:100050000B104030200203184F283030ED000030E4
:100060006C1B0130F2007208031937286D14003040
:10007000EC1B0130F200720803193F28ED14213007
:10008000F0006108F007700884006D088000A00A85
:10009000E10A6108403A031D4E28E1015028061488
:1000A000D028003083168C190130F3000030831201
:1000B0008C190130F20072087305F0007008031902
:1000C000D02800308316941A0130F2007208003AEA
:1000D000031DCD28003014190130F20072080319F5
:1000E0007228CB2801301405F20072080319C928C0
:1000F0000030831206190130F200720803198228B9
:100100000611832806151308E20083161413DF2056
:1001100070088312EE006E08003A031DA728DF2046
:1001200070088312EF00403020020318A628213007
:10013000F0006108F007700884006F088000A00AD2
:10014000E10A6108403A031DA628E101C9286E08AA
:10015000013A031DC928DF2070088312EF004030E8
:1001600020020318C2282130F0006108F00770084F
:1001700084006F088000A00AE10A6108403A031D6C
:10018000C228E1016F08003A031DC728C828AB2820
:10019000C9280313831203138312031383128C11D0
:1001A00083162E08F1002D08F00083126B088A00D8
:1001B000690884006A0E8300FF0E7F0E0900031396
:1001C00083128C110313831200308C190130F1005B
:1001D0007108003AFF30031D0030F2000130831631
:1001E0001405F1007108003AFF30031D0030F000E3
:1001F0007208F0047008031DE228831213088316A6
:10020000A000141383128C1183162008F00008003C
:1002100003138316141394130716871538308312AB
:1002200094000800053003138312FB00FF30FA002E
:10023000FB0B1B291E29FA0B1B291829C530FA00B4
:10024000FA0B202900000000080003138316A50103
:10025000003014190130F1007108003A031D3929EA
:100260001F301105F1007108003A031D3929FF30D4
:10027000A5002508F0000800031383168C118D11CA
:1002800083129412630803194A29B8308316930025
:1002900008214E29243083169300082108000313F7
:1002A0008316A50183128C118D1183161114003051
:1002B00083128C190130F1007108003A031D6A297C
:1002C00000308D190130F1007108031969298D1171
:1002D0006E2957298C11FF308316A500031383164E
:1002E0002508F00008000313831294126408831693
:1002F00093003630831294008316911783128C1169
:1003000083168C158D11080003138316A701A8010D
:1003100001302502A9000030031C013F2602AA007B
:1003200028082A02031D962927082902031CA6294A
:100330001221831628082A06031DA029290827064A
:100340000319A629A70A0319A80A9029080003136C
:1003500083169114003083128C190130F10071085A
:10036000003A0319AA298C11080003138312E5012E
:1003700066080319D2290313831225217008031973
:10038000CD293C214F2170080319CA29FF3083125F
:10039000E500DD290313831273210A30A500A601AD
:1003A0008421BB29031383164F2170080319D9290F
:1003B000DA29D429FF308312E500080003138316DD
:1003C0002408831293000030941B0130F10071085F
:1003D0000319ED290130E700941300308C19013026
:1003E000F1007108003A0319ED298C1100308316D1
:1003F000111B0130F10071080319012A0230831228
:10040000E70003138312080003138312E501E701D9
:10041000831622088312E600831623088312E30062
:10042000831621088312E400831622080319192A6F
:10043000732108000313831265080319212AA721D9
:10044000222AB52183162108A400DE210800031307
:1004500083162108A400DE2183162208A400DE21D1
:10046000080003138312E50183161115003083126F
:100470008C190130F1007108003A0319362A8C11E9
:1004800066080319442A7321031383160800031313
:1004900083162108A400DE21FF3083162205A40064
:1004A000DE2183162308A400DE210800031383162F
:1004B000A10121083F3C031C822A83122008003A34
:1004C000031D632A822A00300C1A0130F1007108E2
:1004D00003196B2A6C2A632A2130F0006808F007A0
:1004E0007008840000089900A003E80A6808403AF0
:1004F000031D7B2AE801831621083F3A0319822A4B
:10050000A10A592A031383160800503003138316D7
:10051000810083129F01063083169F00FF30850003
:10052000FF30860006108610061106178617831204
:100530008601FF3083168700071787178312A001F3
:10054000E101E8012130F0007008840040308000B3
:10055000E10AA00A48308316A100A201FF30A300DF
:10056000042200308312871A0130F1007108031948
:10057000E22A3C2164308316A500A60184210313DE
:10058000831600308312871A0130F1007108003A97
:10059000031DCB2ACC2ABF2A8316A1011A22FF30C1
:1005A0008316A1000130A200272231222830A100A9
:1005B0001A2202308316A1001530A2000330A300D6
:1005C0004722312203138316013083120705F100FD
:1005D0007108003A031DED2A7321031383160730B7
:1005E00099000630980080308312980083160C1210
:1005F0009816013083120705F1007108013A031DB6
:10060000022B8B150B178B172008003A0319092BA7
:100610000A2B042B56223030FB00FF30FA00FB0B74
:10062000122B152BFA0B122B0F2BBF30FA00FA0BE3
:10063000172B00000030831286180130F10071087A
:10064000003A031D252B8614262B8610042B272BFE
:02400E00723FFF
:00000001FF
