:10000000C22AFF3FFF3FFF3FFF00030E8301B700FF
:100010000408B6000A08B8008A017808D1007408FC
:10002000D0007308CF007208CE007108CD007008B0
:10003000CC0068200721AA0A5108F8005008F400F3
:100040004F08F3004E08F2004D08F1004C08F00094
:1000500038088A0036088400370E8300FF0E7F0EB2
:100060000900031383128C1100308C190130F10048
:100070007108003AFF30031D0030F2000130831692
:1000800014058312F1007108003AFF30031D00309F
:10009000F0007208F0047008031D34281308BA0039
:1000A0008316141383128C113A08F000080003130E
:1000B0008312F8010830FC00700DF80D7408F80286
:1000C00003186428F8070310F00DFC0B5C280800E7
:1000D0000030031383168C1901308312F20072086A
:1000E000003A031D7428062900308C190130F200F3
:1000F00072080319062900308316941A01308312FE
:10010000F2007208003A031D052900308316141905
:1001100001308312F200720803198F28052901307B
:10012000831614058312F2007208031905291308B7
:10013000A0008316141331207008A1002108003A92
:10014000031DA82831207008A200FF30A300052954
:100150002108013A031DBE2831207008A400312077
:100160007008A50031207008A60031207008A70093
:1001700031207008A800FF30A30005292108023AA9
:10018000031DDC2831207008B90001307002FF30F7
:10019000031C0030F3007008063CFF30031C0030E5
:1001A000F20072087305F00070080319DB283908A3
:1001B000A900FF30A30005292108033A031DEA28FE
:1001C0000630F4002A08F00057207808F000700A82
:1001D000A90005292108043A031DF328FF30AB00CC
:1001E000FF30A30005292108053A031DFC28FF3034
:1001F000AC00FF30A30005292108E73A031D0529BB
:10020000FF30AD00FF30A30005298C11080000303D
:100210008B1A013003138312F2007208003A031D97
:100220001229512900300B190130F200720803190C
:1002300051292E08003A031D222901308700240984
:1002400086004A292E08013A031D2B290230870017
:10025000250986004A292E08023A031D3429043054
:100260008700260986004A292E08033A031D3D29E6
:1002700020308700270986004A292E08043A031DEA
:10028000462940308700280986004A2980308700A7
:1002900022098600AE0A2E08083A031D5029AE0135
:1002A0000B110800073003138312FB00FF30FA0024
:1002B000FB0B5B295E29FA0B5B2958297930FA0080
:1002C000FA0B602900000800031383124608031785
:1002D0008D0083168C138C130C1400000000831205
:1002E0000C08C7004708F000080003138312C80178
:1002F000C90101304602CA000030031C013F470219
:10030000CB0049084B02031D872948084A02031CF9
:100310009629522149084B06031D90294A08480690
:1003200003199629C80A0319C90A8129080000007F
:10033000031783160030031783168C18013003133C
:100340008312F1007108013A031DA82900009829C1
:10035000460803178D0047088C007F3083160C0574
:1003600003138312F0007008031783168C00043007
:10037000031383127004031783168C008B135530FC
:100380008D00AA308D008C148B170C1108000313FC
:1003900083124408C60064217008C5001430C600EA
:1003A000C70175214508F000080003138312941259
:1003B0002F0883169300363083129400831691170A
:1003C00083128C1183168C158D1108000313831270
:1003D0004408C6004508C700972114300313831250
:1003E000C600C70175210800031383128501A4010B
:1003F000A501A601A701A801A20108000313831209
:10040000C401C7217008FF3A031D072A2A2A0130B8
:10041000C400C721700885000230C400C7217008DD
:10042000A2000330C400C7217008A4000430C40037
:10043000C7217008A5000530C400C7217008A600B8
:100440000630C400C7217008A7000730C400C721C8
:100450007008A800080003138312B001B10143081B
:10046000B2004208AF0043080319372AD52103130D
:10047000831608008B1300308B1B0130031383128B
:10048000F1007108003A031D462A472A3A2A08005B
:1004900003138312C401C501E6210130C40005081D
:1004A000C500E6210230C4002208C500E621033061
:1004B000C4002408C500E6210430C4002508C50096
:1004C000E6210530C4002608C500E6210630C40038
:1004D0002708C500E6210730C4002808C500E6212A
:1004E000080000340034083400340034023400348E
:1004F0000034003420340234003408340034203412
:1005000022340034003400342234223400340834DD
:10051000003422342A340034003400342A340800F1
:1005200003138312FB01FA01F9018030F800F10C8A
:10053000F00C031CA42A7408F90775080318750F3A
:10054000FA070318FB0A0310F01FAC2A7408FA0715
:1005500075080318750FFB07FB0CFA0CF90CF80C67
:10056000031C972A7B08F3007A08F2007908F1004F
:100570007808F00008000313831235088A00330856
:1005800082000800D33003138316810083129F0179
:10059000063083169F00FF308312A100AA01A90133
:1005A000AB01AC01AD01A301AE01F421FE21DF30AE
:1005B0008316850086011830870014308312C2002C
:1005C000FF30C3002B22E0308B00031383163A2246
:1005D0002908BB00A9012B08BC00AB012C08BD00F9
:1005E000AC012D08BE00AD012308BF00A3018B178D
:1005F0003E080319FC2AF4213B08003A0319852B15
:100600007130C0000230C1003B03F0000030F10047
:100610000530F4000030F500902270084007F20029
:1006200041080318013F7107F3007208B300730813
:10063000B5000A08B400BB22F20034088A00720830
:10064000A4007008013FF20000300318013F710759
:10065000F3004008F20741080318013FF30772084E
:10066000B3007308B5000A08B400BB22F2003408D6
:100670008A007208A5007008023FF20000300318DB
:10068000013F7107F3004008F20741080318013FDA
:10069000F3077208B3007308B5000A08B400BB2260
:1006A000F20034088A007208A6007008033FF200C6
:1006B00000300318013F7107F3004008F2074108BA
:1006C0000318013FF3077208B3007308B5000A0866
:1006D000B400BB22F20034088A007208A70004307C
:1006E000F0070318F10A4008F00741080318013F1A
:1006F000F1077008B3007108B5000A08B400BB2206
:10070000F00034088A007008A8003C080319922BF6
:100710000030851A0130F20072080319912B8512FE
:10072000922B85163D0803199A2BA409A509A60941
:10073000A709A8093F0803199E2B4822E52A9F2BE9
:02400E00723FFF
:00000001FF
