:100000002728FF3FFF3FFF3FFF00030E8301B5009E
:100010000408B4000A08B6008A017308D200720806
:10002000D1007108D0007008CF007F215208F30082
:100030005108F2005008F1004F08F00036088A001D
:1000400034088400350E8300FF0E7F0E0900D73080
:1000500003138316810083129F01063083169F00CD
:10006000FF308312A000A901A501D6246522FF302C
:100070008316850086011830870024308312BD0066
:10008000FF30BE006D24C0308B0010303102031CE5
:100090004A28B1013108A800C6242808B10029085F
:1000A000B200A9012508B300A5018B173208031976
:1000B0005A28D624330803195E2899223108003AB9
:1000C000031D79280714871007158716071387174C
:1000D0002108C7002208C800B4230710871407119D
:1000E0008712071787132108C7002208C800B42306
:1000F0007D293108013A031D93282130870021080A
:10010000C7002208C800B423423087002108C70076
:100110002208C800B423843087002108C7002208C1
:10012000C800B4237D293108023A031DAD2884306C
:1001300087002108C7002208C800B4234230870086
:100140002108C7002208C800B423213087002108F5
:10015000C7002208C800B4237D293108033A031DD3
:10016000DC28013087002108C7002208C800B4231A
:10017000023087002108C7002208C800B4230430D9
:1001800087002108C7002208C800B4232030870058
:100190002108C7002208C800B42340308700210886
:1001A000C7002208C800B423803087002108C70098
:1001B0002208C800B4237D293108043A031D0B2905
:1001C000803087002108C7002208C800B4234030CF
:1001D00087002108C7002208C800B4232030870008
:1001E0002108C7002208C800B42304308700210872
:1001F000C7002208C800B423023087002108C700C6
:100200002208C800B423013087002108C700220853
:10021000C800B4237D293108053A031D2C2921305B
:1002200087002108C7002208C800B4234230870095
:100230002108C7002208C800B423843087002108A1
:10024000C7002208C800B423423087002108C70035
:100250002208C800B4237D293108063A031D7729F6
:10026000803087002108C7002208C800B42340302E
:1002700087002108C7002208C800B4232030870067
:100280002108C7002208C800B423043087002108D1
:10029000C7002208C800B423023087002108C70025
:1002A0002208C800B423013087002108C7002208B3
:1002B000C800B423023087002108C7002208C80004
:1002C000B423043087002108C7002208C800B423E3
:1002D000203087002108C7002208C800B42340301E
:1002E00087002108C7002208C800B4237D293108EF
:1002F000203A031D7D2958247D294C287E2903138B
:1003000083160C088312F2000030F2190130F2005B
:100310007208003A031D8D29642A0C08F20000308F
:10032000F2190130F20072080319642A83161408C6
:100330008312F2000030F21A0130F2007208003A23
:10034000031D612A831614088312F200003072190B
:100350000130F20072080319C0292008053A031D74
:10036000B5290508BC009424BF292008063A031DBE
:10037000BF292108B9002208BA003225BF29612A05
:10038000831614088312F2000130F2057208031973
:10039000612A1308A300831614131D237008A000FC
:1003A0002008003A031DDB291D2324087006850060
:1003B000FF30A500612A2008013A031DE6291D230C
:1003C000260870068600FF30A500612A2008023A40
:1003D000031DF1291D23270870068700FF30A500A3
:1003E000612A2008033A031D1A2A40247008B70026
:1003F0007108B80000307106031D002A0030700635
:10040000FF3003190030F3007108133C031D0A2A62
:100410007008883CFF30031C0030F200720873053E
:10042000F0000319192A3708A1003808A200FF308C
:10043000A500612A2008043A031D232A1D23700801
:1004400083168500612A0313831683122008053A58
:10045000031D2B2A612A2008063A031D302A612A2F
:100460002008073A031D3A2A1D237008A800FF3010
:10047000A500612A2008083A031D442A1D2370089C
:10048000A400FF30A500612A2008093A031D4E2A66
:100490001D237008A600FF30A500612A20080A3A33
:1004A000031D582A1D237008A700FF30A500612AEC
:1004B0002008E73A031D612AFF30A900FF30A5009C
:1004C000612A031383128C11080003138312BF01E6
:1004D000E5247008FF3A031D6E2A982A0130BF00F8
:1004E000E5247008A4000230BF00E5247008A600CF
:1004F0000330BF00E5247008A7000430BF00E524E6
:10050000700885000530BF00E524700886000630BD
:10051000BF00E524700887000730BF00E52470089D
:10052000B1000830BF00F5227008A1007108A200D8
:10053000080003138312BF01C001F3240130BF0080
:100540002408C000F3240230BF002608C000F324B2
:100550000330BF002708C000F3240430BF000508A3
:10056000C000F3240530BF000608C000F3240630A5
:10057000BF000708C000F3240730BF003108C000E7
:10058000F3240830BF002108C0002208C1000E2457
:100590000800031783160030031783168C180130E8
:1005A00003138312F1007108013A031DD92A0000D8
:1005B000C92A440803178D0045088C0083168C1344
:1005C0000C150B0803138312C6008B135530031749
:1005D00083168D00AA308D008C14031383124608F5
:1005E0008B00031783160C110800031383123F08B6
:1005F000C40001257008C2001430C700C801B4232C
:100600003F0AC40001257008C3001430C700C801A8
:10061000B4234308F200F3017208F300F201420828
:10062000C000C1017208C00773080318013FC10769
:100630004008F0004108F1000800031383128C11F8
:100640000C08F1000030F1190130F1007108003A96
:10065000FF30031D0030F200831614088312F100EE
:100660000130F1057108003AFF30031D0030F00041
:100670007208F004031D202B1308BC00831614130A
:1006800083128C113C08F000080003138312440805
:1006900093000030941B0130F10071080319532BB3
:1006A0000130B00094130C08F1000030F119013052
:1006B000F1007108003A0319532B8C1183161108AD
:1006C0008312F1000030711B0130F1007108031931
:1006D0006B2B0230B000080003138312C7018C118A
:1006E0008D118316111483120C08F1000030F119DA
:1006F0000130F1007108003A031D8A2B0D08F1004A
:100700000030F1190130F10071080319892B8D11A6
:100710008D2B732B8C11FF30C7004708F0000800A9
:1007200003138312AE012F080319AB2BD6237008D5
:100730000319A32BF3236C2370080319A22BFF309A
:10074000AE00B32BA524031383160A308312C7000F
:10075000C801B423962B6C2370080319B02BB12B5E
:10076000AB2BFF30AE00080003138312C901CA018E
:1007700001304702CB000030031C013F4802CC008F
:100780004A084C02031DC62B49084B02031CD52BFB
:1007900081244A084C06031DCF2B4B084906031938
:1007A000D52BC90A0319CA0AB82B080003138312F0
:1007B000C701831614088312F1000030711901304B
:1007C000F1007108003A031DF02B1F30831611054C
:1007D0008312F1007108003A031DF02BFF30C700AF
:1007E0004708F0000800031383168C118D11831243
:1007F00094122A090319072C3230831693002825F6
:10080000831613088312AB001408AC000D2C2B08C0
:100810008316930083122C0894000800031383129C
:100820003F08C400FF304005C500C922143003133F
:100830008312C700C801B4233F0AC4004108C500A1
:10084000C922143003138312C700C801B42308005F
:1008500003138312AE018316111583120C08F100E5
:100860000030F1190130F1007108003A03192D2C04
:100870008C112F0803193D2CA5240313831608009F
:100880001D237008BB001D237008F200F3017208DD
:10089000F300F2013B08B900BA017208B907730806
:1008A0000318013FBA073908F0003A08F1000800C0
:1008B000FF3003138316850028308312BF001C25E8
:1008C0000230BF000508C000C1010F2528243230C6
:1008D0008312C700C801B423080003138312AA01BE
:1008E000AE01B0013E08AF003D08AD00F3233E0865
:1008F00003197B2CA52403138316FF308312AA004F
:100900000800073003138312FB00FF30FA00FB0BD3
:100910008A2C8D2CFA0B8A2C872C7830FA00FA0B53
:100920008F2C000000000800031383120C08F10054
:100930000030F1190130F1007108003A0319942CCC
:100940003C08930014168C110800031383129412B0
:100950002D08831693003630831294008316911766
:1009600083128C1183168C158D11080003138316C6
:10097000911483120C08F1000030F1190130F100DC
:100980007108003A0319B92C8C1108008B130B085D
:1009900003138312F1000030F11B0130F1007108E4
:1009A000003A031DD42CD52CC62C08000313831247
:1009B000A401A601A701850186018701FF30B100CE
:1009C000F430A1000130A2000800031383123F0895
:1009D000C40001257008C0001430C700C801B4234A
:1009E0004008F0000800031383123F08C4004008C9
:1009F000C500C922143003138312C700C801B423F1
:100A0000080003138312440803178D0083168C1308
:100A10000C1483120C08C5004508F00008000313ED
:100A200083123F08C4004523FF304005C40045231E
:100A30004108C40045230800031383122E0803193C
:100A4000232DB624242D90233F08C40045230800FD
:100A50000313831614139413071687153830831263
:100A600094000800FF30031383123905BC0094245E
:100A70003A08BC0094240800FF3FFF3FFF3FFF3FC0
:02400E00723FFF
:00000001FF
