:10000000A62AFF3FFF3FFF3FFF00030E8301C00012
:100010000408BF000A08C1008A017308DF007208E3
:10002000DE007108DD007008DC00162328205F0860
:10003000F3005E08F2005D08F1005C08F000410882
:100040008A003F088400400E8300FF0E7F0E0900E7
:100050000B0803138312F1000030F11A0130F10094
:100060007108003A031D3528D1280B08F100003033
:1000700071190130F10071080319D1282508003ADF
:10008000031D90282609860026082705F000700821
:10009000003AFF3003190030F1007108003A031DE7
:1000A000532807105428071426082805F000700864
:1000B000003AFF3003190030F1007108003A031DC7
:1000C000632887106428871426082905F000700823
:1000D000003AFF3003190030F1007108003A031DA7
:1000E000732807117428071526082A05F0007008E0
:1000F000003AFF3003190030F1007108003A031D87
:1001000083288512842885162608F100F10D7110C8
:100110007108A6007108003A031D90280130A6005E
:1001200002302502FF30031C0030F0002408F005E7
:1001300003199C28FF3086002C082B02FF30031C7B
:100140000030F1007108003A031DA8288712A92881
:1001500087162D082B02FF30031C0030F1007108B8
:10016000003A031DB5280713B62807172E082B02DF
:10017000FF30031C0030F1007108003A031DC22853
:100180008713C3288717A50A2508043A031DC92821
:10019000A5012B08273A031DCF28AB01D028AB0AB5
:1001A0000B110800031383121F151F08F200003003
:1001B00072190130F2007208031DD5281E08F200E2
:1001C000F3017208F300F20183161E088312F00097
:1001D000F1017008F20771080318013FF307720874
:1001E000C8007308C9007308033A031DF928FF30DB
:1001F0007206031D3129AA013F30A9003E30A80034
:100200003830A7002730AC002730AD002730AE00D3
:100210002030CB003426CB010F30CC005F269A254E
:1002200003308312D400D50143252030CB0034267F
:100230000130CF0081242030CB002726FF30CB00B7
:1002400057247008CA009A2583124A08003A031DF1
:100250002A292B291529F430D4000130D500432553
:1002600049294808F0004908F100F10CF00CF1139D
:100270007008C8007108C9007008CB007108CC0074
:100280000230CD000430CE0008266430D400D50101
:100290004325080003138312510884005108840089
:1002A0008001510AF0007008840070088400800109
:1002B00002305107F000700884007008840080014B
:1002C00003305107F000700884007008840080013A
:1002D00003305002031D6E29E8304F02031C8529AC
:1002E000E830CF02031CD0030330D00203305107A3
:1002F000F100710884000008F000F00A7108840021
:100300007108840070088000682900305002031DC5
:100310008B2964304F02031CA0296430CF02031CD8
:10032000D00302305107F100710884000008F0008A
:10033000F00A710884007108840070088000852923
:1003400000305002031DA6290A304F02031CBA29AF
:100350000A30CF02031CD003510AF1007108840057
:100360000008F000F00A7108840071088400700829
:100370008000A02951088400510884004F088000A3
:100380000800031383123D08003A031DCA29AC0379
:10039000AE0AD8293D08013A031DD129AE03AD0AA2
:1003A000D8293D08023A031DD829AD03AC0AD82943
:1003B0002C08F200F20CF213F20CF2137208B600E1
:1003C0002D08B700B70CB713B70CB7132E08B80039
:1003D000B80CB813B80CB813B9017208D400D50121
:1003E0001D247008A7003708D400D5011D2470080B
:1003F000A8003808D400D5011D247008A900AA015E
:10040000C830D400D50143253D08003A031D142A05
:100410002E08273A031D132A0130BD00E830D4000E
:100420000330D5004325332A3D08013A031D242A11
:100430002D08273A031D232A0230BD00E830D400DE
:100440000330D5004325332A3D08023A031D332AE1
:100450002C08273A031D322ABD01E830D4000330AE
:10046000D5004325332A08000F30031383124B05B0
:10047000F0004C08F1000030F1054D0884004D08F3
:100480008400700880004B08F0004C08F100F10C6B
:10049000F00CF113F10CF00CF113F10CF00CF11362
:1004A000F10CF00CF1137008CB007108CC004D0A70
:1004B000F2000F30F0050030F10572088400720878
:1004C0008400700880004B08F0004C08F100F10C2B
:1004D000F00CF113F10CF00CF113F10CF00CF11322
:1004E000F10CF00CF1137008CB007108CC00023055
:1004F0004D07F2000F30F0050030F105720884005E
:1005000072088400700880004B08F0004C08F1006D
:10051000F10CF00CF113F10CF00CF113F10CF00CE8
:10052000F113F10CF00CF1137008CB007108CC0042
:1005300003304D07F2000F30F0050030F10572086E
:10054000840072088400700880000800AA248312C6
:10055000BA01BB01BD01FF30A100FF30BE0035086C
:10056000003A0319C02AA701A801A901AA01350868
:10057000A700B5011030D4002730D5004325AF2A9D
:100580002108BC003C08FF3A031DCB2AAC01AD0199
:10059000AE014B26122B3C08013A0319D32A3C0822
:1005A000053A031DD52AD220122B3C08003A031924
:1005B000E52A3C08023A0319E52A3C08043A0319E3
:1005C000E52A3C08063A031DE72ADA23122B3C08E9
:1005D000033A0319EF2A3C08073A031DFA2A3C089C
:1005E0003E060319F82ABD012730AC00AD01AE016B
:1005F000C121122B3C08083A031D082B2208CB000E
:100600002308CC00FF30CD000430CE000826122B8A
:100610003C08093A031D122B2208C8002308C90010
:10062000D625122B3C08BE00AF2A152B03138316C8
:100630000C088312F2000030F2190130F200720847
:10064000003A031D242B822B0C08F2000030F21913
:100650000130F20072080319822B831614088312EA
:10066000F2000030F21A0130F2007208003A031D65
:10067000812B831614088312F200003072190130A6
:10068000F20072080319452B812B1308A000831672
:100690001413D3247008C2004208003A031D532BE0
:1006A000FF30A100812B4208013A031D612BD324A6
:1006B0007008C3007008073C031C602B4308A100AE
:1006C000812B4208023A031D6D2B82257008A2007F
:1006D0007108A3000830A100812B4208033A031DD2
:1006E000752BD3247008A400812B4208043A031D03
:1006F000812B82257008A2007108A3000930A10097
:10070000812B8C11080003138312D2015208033C81
:10071000031CC72B500852020318B82B2730F000D7
:1007200052087007D3003630F0005208700784007A
:100730000008D4005108D5001D2453088400530834
:100740008400700880004F085206031DB72B273025
:10075000F00052087007F100710884000008F000F2
:10076000F017710884007108840070088000C12BA4
:100770002730F0005208F0077008840070088400E9
:1007800080015208033A0319C72BD20A862B360878
:10079000AC00AC0D2C10AC0D2C103708AD00AD0D1D
:1007A0002D10AD0D2D103808AE00AE0D2E10AE0D73
:1007B0002E100800031383123A08CB003B08CC002C
:1007C000FF30CD000330CE00082600303C19013048
:1007D000F10071080319F12B0A30D400D50143252B
:1007E000F52BC830D400D50143250030BC180130AA
:1007F000F100710803190B2C3B08033A031D022C6E
:10080000E7303A06031D072CBA01BB010A2CBA0ACD
:100810000319BB0A1C2C00303B06031D112C0030B1
:100820003A06031D182CE730BA000330BB001C2C1D
:100830000130BA02031CBB030800031383125509DD
:10084000F2005408093CFF3003180030F000720831
:10085000F00503192E2C7930D600542C54080F3C87
:10086000FF3003180030F0005508F00503193B2C49
:100870007930D600542CC530F2000530F30054080E
:10088000F000F1017208F00773080318013FF10747
:100890007008AF007108B1000A08B0006826F000C7
:1008A00030088A007008D6005608F00008000313CC
:1008B0008316911583120C08F1000030F1190130F4
:1008C000F1007108003A03195A2C8C111308CC005E
:1008D0004B0803196E2C83169116712C0313831683
:1008E0009112111683120C08F1000030F119013039
:1008F000F1007108003A0319722C8C114C08F000B9
:100900000800031383124F0893001408F10000300D
:10091000F11B0130F10071080319912C0130B50071
:1009200094130C08F1000030F1190130F100710846
:10093000003A0319912C8C11831611088312F100CF
:100940000030711B0130F10071080319A92C02302D
:10095000B5000800D230031383168100C130831222
:100960009F008E3083169F00DF3085008601831242
:100970008601183083168700E03083128700A401B7
:100980000130A600A701A801A901AA01A501AB0198
:10099000AC01AD01AE012830CB00FF30CC001826F1
:1009A000E0308B000800031383128C110C08F10057
:1009B0000030F1190130F1007108003AFF30031DD9
:1009C0000030F200831614088312F1000130F105A3
:1009D0007108003AFF30031D0030F0007208F00487
:1009E000031DD62C1308C7008316141383128C1111
:1009F0004708F000080003138312B30134080319F9
:100A0000162D6525700803190E2D40261F25700828
:100A100003190D2DFF30B3001E2DE7250313831698
:100A20000A308312D400D5014325012D1F257008FB
:100A300003191B2D1C2D162DFF30B30008000313C6
:100A40008312D4018C118D118316111483120C089A
:100A5000F1000030F1190130F1007108003A031D76
:100A60003D2D0D08F1000030F1190130F100710841
:100A700003193C2D8D11402D262D8C11FF30D400F3
:100A80005408F000080003138312D601D701013087
:100A90005402D8000030031C013F5502D90057080A
:100AA0005902031D552D56085802031C642DB2250A
:100AB00057085906031D5E2D580856060319642D64
:100AC000D60A0319D70A472D080003138312D4014D
:100AD000831614088312F100003071190130F100FF
:100AE0007108003A031D7F2D1F30831611058312F4
:100AF000F1007108003A031D7F2DFF30D400540827
:100B0000F0000800D3247008C600D3247008F20057
:100B1000F3017208F300F2014608C400C50172082F
:100B2000C40773080318013FC5074408F0004508CF
:100B3000F100080003138312B30183161115831209
:100B40000C08F1000030F1190130F1007108003A91
:100B500003199F2D8C1134080319AF2DE7250313BA
:100B600083160800073003138312FB00FF30FA00DE
:100B7000FB0BBB2DBE2DFA0BBB2DB82D7830FA0028
:100B8000FA0BC02D0000000008003F3406345B342F
:100B90004F3466346D347D3407347F346F347734AA
:100BA0007C3439345E347934713408000313831291
:100BB0004808CB004908CC003630CD003422FF3045
:100BC000CF000430D000FF30D1008323080003138E
:100BD00083129412320883169300363083129400E5
:100BE0008316911783128C1183168C158D110800B2
:100BF00003138316911483120C08F1000030F119CD
:100C00000130F1007108003A0319FB2D8C11080026
:100C1000031383124B08CF004C08D0003630D100AC
:100C20004A214D08CF004E08D000D101832308008F
:100C300003138312B301B5014C08B4004B08B20092
:100C40004C080319242EE725031383160800031309
:100C50008312330803192E2EF8252F2EFB24013082
:100C60004B04CF00812408000313831233080319B7
:100C70003B2EF8253C2EFB244B08CF008124080096
:100C8000031383168C118D11831294123230831644
:100C9000930055260800633003138312A7001C300D
:100CA000A8006330A900AA010800031383161413D7
:100CB0009413071687153830831294000800031325
:100CC00083124B08CF0081244C08CF0081240800F8
:100CD0000313831231088A002F0882000800FF3FA7
:02400E007A3FF7
:00000001FF
