:1000000038EF14F0FFFFFFFF04C094F003C093F03B
:1000100002C092F001C091F000C090F0E9CF2FF043
:10002000EACF30F0E1CF31F0E2CF32F0D9CF33F088
:10003000DACF34F013EC08F02FC0E9FF30C0EAFF4C
:1000400031C0E1FF32C0E2FF33C0D9FF34C0DAFF74
:1000500094C004F093C003F092C002F091C001F08C
:1000600090C000F011004D0E506E000E516E4EEC1F
:1000700012F000C04FF0010E026E4F500218D8A4CB
:100080003AD24DC048F04EC049F0425212E04E50B4
:10009000411802E140504D180AE0540E5D6E000E0A
:1000A0005E6EFF0E5F6E97EC0EF058EF00F0426A46
:1000B00021D24E50411802E140504D1801E14AD280
:1000C0003F520DE04DC075F04EC076F055EC11F08A
:1000D00000C05DF001C05EF05F6A97EC0EF0000EAC
:1000E0004E1802E1000E4D1803E1A0EC0CF002D214
:1000F000000E4E1802E1010E4D1803E16BEC11F0F9
:10010000F9D1000E4E1802E1020E4D1803E194ECF5
:1001100010F0F0D1000E4E1802E1030E4D1803E16D
:100120002EEC14F0E7D1000E4E1802E1080E4D1827
:1001300003E162EC13F0DED1000E4E1802E1090E6D
:100140004D1803E168EC0AF0D5D1000E4E1802E11B
:100150000A0E4D1803E1C9EC13F0CCD1000E4E1875
:1001600002E10B0E4D1803E1A3EC13F0C3D1000E16
:100170004E1802E10C0E4D1803E17CEC13F0BAD1DD
:10018000000E4E1802E10D0E4D1803E189EC13F03C
:10019000B1D1000E4E1802E10E0E4D1803E196EC9F
:1001A00013F0A8D1000E4E1802E10F0E4D1803E116
:1001B000B0EC13F09FD1000E4E1802E1100E4D1856
:1001C00003E104EC14F096D1000E4E1802E1110E7A
:1001D0004D1803E1AEEC10F08DD1000E4E1802E187
:1001E000120E4D1803E18FEC12F084D1000E4E1860
:1001F00002E1130E4D1803E16FEC12F07BD1000EFB
:100200004E1802E11E0E4D1803E10FEC14F072D1EE
:10021000000E4E1802E11F0E4D1803E1DDEC12F046
:1002200069D1000E4E1802E1200E4D1803E1DFECFB
:1002300010F060D1000E4E1802E1210E4D1803E1BE
:1002400037EC0DF057D1000E4E1802E1220E4D187A
:1002500003E100EC0CF04ED1000E4E1802E1230E2B
:100260004D1803E16FEC14F045D1000E4E1802E179
:10027000240E4D1803E1FAEC06F03CD1000E4E18A6
:1002800002E1250E4D1804E1506A5AEC09F032D112
:10029000000E4E1802E1280E4D1803E1CAEC05F0DD
:1002A00029D1000E4E1802E1290E4D1803E162EC2F
:1002B00006F020D1000E4E1802E12A0E4D1803E17F
:1002C00031EC05F017D1000E4E1802E12F0E4D183B
:1002D00003E1BAEC03F00ED1000E4E1802E1300E2D
:1002E0004D1803E16BEC0CF005D1000E4E1802E145
:1002F000310E4D1803E1ABEC02F0FCD0000E4E18AD
:1003000002E13C0E4D1803E1EFEC11F0F3D0000ECA
:100310004E1802E13D0E4D1803E197EC11F0EAD0C2
:10032000000E4E1802E13E0E4D1803E181EC11F073
:10033000E1D0000E4E1802E13F0E4D1803E10FEC24
:1003400011F0D8D0000E4E1802E1400E4D1803E116
:100350008BEC0FF0CFD0000E4E1802E1410E4D187D
:1003600003E1ADEC11F0C6D0000E4E1802E1440ED0
:100370004D1803E1AAEC0FF0BDD0000E4E1802E1BB
:10038000450E4D1803E1D9EC11F0B4D0000E4E1813
:1003900002E1460E4D1803E1C7EC10F0ABD0000EA1
:1003A0004E1802E1470E4D1803E100EC0BF0A2D00D
:1003B000000E4E1802E1480E4D1803E1D5EC13F083
:1003C00099D0000E4E1802E1490E4D1803E1E1EC00
:1003D00013F090D04E50030A02E1840E4D1804E150
:1003E000506AE6EC0FF086D04E50030A02E1850E0B
:1003F0004D1803E15DEC10F07DD04E50030A02E190
:10040000860E4D1803E149EC0EF074D04E50030AED
:1004100002E1870E4D1803E1F6EC0DF06BD04E5063
:10042000030A02E1980E4D1803E190EC07F062D048
:100430004E50030A02E1990E4D1803E145EC0BF012
:1004400059D04E50030A02E19A0E4D1803E1C9EC4F
:100450000DF050D04E50030A02E19B0E4D1803E1FF
:100460002AEC12F047D04E50030A02E19C0E4D18C0
:1004700003E18DEC04F03ED04E50030A02E1A20EDF
:100480004D1803E11AEC14F035D04E50030A02E186
:10049000A30E4D1803E146EC13F02CD04E50030A86
:1004A00002E1A40E4D1803E127EC11F023D04E50C9
:1004B000030A02E1A50E4D1803E199EC0DF01AD0E4
:1004C0004E50030A02E1A60E4D1803E136EC0CF083
:1004D00011D04E50030A02E1A70E4D1803E174EC4F
:1004E00014F008D0550E5D6E000E5E6EFF0E5F6E4E
:1004F00097EC0EF02ED0030E026E4F50021829E139
:10050000000E491802E1250E481805E1FF0E506E55
:100510005AEC09F01DD0000E491802E1480E4818A7
:1005200003E1D5EC13F014D0000E491802E1490E96
:10053000481803E1E1EC13F00BD04950030A02E143
:10054000840E481805E1FF0E506EE6EC0FF000D067
:1005500000D089D51200530E5D6E000E5E6E7AECEF
:1005600010F0001E01E005D1000E541802E1000E4B
:100570005318FF0ED8A4000E026E000E006E5450E9
:10058000005C02E153501F08FF0ED8B0000E006E51
:100590000250001003E004EC10F0EBD0550E5D6E3D
:1005A000000E5E6E7AEC10F0001E01E0E2D0000E4C
:1005B000561802E1000E5518FF0ED8A4000E026E68
:1005C000000E006E5650005C02E155500C08FF0E04
:1005D000D8B0000E006E0250001003E004EC10F0E2
:1005E000C8D0570E5D6E000E5E6E7AEC10F0001EE5
:1005F00001E0BFD0070E585C02E1D00E575CFF0E41
:10060000D8B0000E026E080E585C02E1330E575C43
:10061000000ED8B0FF0E006E0250001003E004EC94
:1006200010F0A7D0D00E575C5B6E070E58585C6E6A
:100630005BC057F05CC058F00A0E046E000E056EE9
:1006400053C000F054C001F022EC10F0040E046E10
:1006500000C059F001C05AF00450000105E05936BD
:1006600059905A36FF0FF9D700010A0E046E000E9A
:10067000056E53C000F054C001F022EC10F008C029
:1006800000F009C001F0595000265A50012200C064
:1006900050F00A0E046E000E056E55C000F056C0F4
:1006A00001F022EC10F0040E046E00C059F001C0FD
:1006B0005AF00450000105E0593659905A36FF0FA0
:1006C000F9D700010A0E046E000E056E55C000F049
:1006D00056C001F022EC10F008C000F009C001F093
:1006E000595000265A50012200C051F00A0E046EE3
:1006F000000E056E5BC000F05CC001F022EC10F053
:10070000040E046E00C059F001C05AF004500001FC
:1007100005E0593659905A36FF0FF9D70A0E046E84
:10072000000E056E5BC000F05CC001F022EC10F022
:1007300008C000F009C001F0595000265A500122AB
:1007400000C052F0D00E7E6EEDEC13F0040E0001EE
:10075000806F26EC0FF050C080F026EC0FF051C0F7
:1007600080F026EC0FF052C080F026EC0FF03DEC4C
:1007700012F01200570E5D6E000E5E6E7AEC10F0F5
:10078000001E01E0C9D0000E585C02E1180E575C53
:1007900003E304EC10F0C0D0550E5D6E000E5E6EEB
:1007A0007AEC10F0001E01E0B7D0000E565C02E1BA
:1007B0003C0E555C03E304EC10F0AED0530E5D6EBE
:1007C000000E5E6E7AEC10F0001E01E0A5D0000E67
:1007D000545C02E13C0E535C03E304EC10F09CD04B
:1007E0000A0E046E000E056E53C000F054C001F0F6
:1007F00022EC10F0040E046E00C059F001C05AF053
:100800000450000105E0593659905A36FF0FF9D7C8
:1008100000010A0E046E000E056E53C000F054C0B5
:1008200001F022EC10F008C000F009C001F05950AE
:1008300000265A50012200C050F00A0E046E000E2D
:10084000056E55C000F056C001F022EC10F0040E09
:10085000046E00C059F001C05AF00450000105E0D8
:10086000593659905A36FF0FF9D700010A0E046E17
:10087000000E056E55C000F056C001F022EC10F0DD
:1008800008C000F009C001F0595000265A5001225A
:1008900000C051F00A0E046E000E056E57C000F045
:1008A00058C001F022EC10F0040E046E00C059F0A4
:1008B00001C05AF00450000105E0593659905A36EB
:1008C000FF0FF9D70A0E046E000E056E57C000F038
:1008D00058C001F022EC10F008C000F009C001F08F
:1008E000595000265A50012200C052F0D00E7E6EA0
:1008F000EDEC13F00001806B26EC0FF050C080F09F
:1009000026EC0FF051C080F026EC0FF052C080F0C2
:1009100026EC0FF03DEC12F01200F7EC10F0001E88
:1009200009E0570E5D6E000E5E6EFF0E5F6E97EC77
:100930000EF096D0500E5D6E000E5E6E7AEC10F0EA
:10094000001E01E08DD0000E511802E1000E50187B
:10095000FF0ED8A4000E016E000E511802E1010E28
:100960005018FF0ED8A4000E006E0150001001E0D8
:1009700009D0590E5D6E000E5E6EFF0E5F6E97EC35
:100980000EF0D8D7000E511802E1010E5018FF0EDC
:10099000D8A4000E5A6E680E526E010E536EFF0EF2
:1009A000546E010E556E560E5D6E000E5E6E7AEC44
:1009B00010F0001E01E054D05350575C02E1525039
:1009C000565C000ED8B0FF0E016E5750555C02E128
:1009D0005650545C000ED8B0FF0E006E0150001649
:1009E00001E009D0560E5D6E000E5E6EFF0E5F6E6A
:1009F00097EC0EF0D8D7580E5D6E000E5E6E7AEC56
:100A000010F0001E01E02CD05750595C02E1565006
:100A1000585C000ED8B0FF0E016E5950555C02E1D3
:100A20005850545C000ED8B0FF0E006E01500016F6
:100A300001E009D0560E5D6E000E5E6EFF0E5F6E19
:100A400097EC0EF0D8D75D6A5AC05EF056C05FF0E2
:100A500057C060F058C061F059C062F0B5EC09F0C1
:100A60001200D00E7E6EEDEC13F0040E0001806FCC
:100A700026EC0FF0D00E7E6E54EC13F07E6A6AEC1A
:100A80000FF000C050F07E6A6AEC0FF000C051F029
:100A9000FF0E7E6E6AEC0FF050C052F0000E536EE7
:100AA0000F0E5216000E531650C000F0000E016ECD
:100AB000F00E0014036E01C004F0000E041603C013
:100AC00000F004C001F001320032019E0132003218
:100AD000019E01320032019E01320032019E0A0E57
:100AE000046E000E056E20EC0EF0005052260150F0
:100AF000532251C054F0000E556E0F0E5416000EC6
:100B0000551651C000F0000E016EF00E0014036E79
:100B100001C004F0000E041603C000F004C001F090
:100B200001320032019E01320032019E0132003258
:100B3000019E01320032019E0A0E046E000E056E07
:100B400020EC0EF00050542601505522040E006E89
:100B50003DEC12F052C000F053C001F0640E046E80
:100B6000000E056E20EC0EF000505424686E01500B
:100B70005520696E28EC13F0320E0001866F000ECE
:100B8000876F40EC10F06FEC13F0005201E001D0E1
:100B900068D71200D00E7E6EEDEC13F00001806B72
:100BA00026EC0FF0D00E7E6E54EC13F07E6A6AECE9
:100BB0000FF000C050F07E6A6AEC0FF000C051F0F8
:100BC000FF0E7E6E6AEC0FF050C052F0000E536EB6
:100BD0000F0E5216000E531650C000F0000E016E9C
:100BE000F00E0014036E01C004F0000E041603C0E2
:100BF00000F004C001F001320032019E01320032E7
:100C0000019E01320032019E01320032019E0A0E25
:100C1000046E000E056E20EC0EF0005052260150BE
:100C2000532251C054F0000E556E0F0E5416000E94
:100C3000551651C000F0000E016EF00E0014036E48
:100C400001C004F0000E041603C000F004C001F05F
:100C500001320032019E01320032019E0132003227
:100C6000019E01320032019E0A0E046E000E056ED6
:100C700020EC0EF00050542601505522040E006E58
:100C80003DEC12F054C000F055C001F0640E046E4B
:100C9000000E056E20EC0EF000505224686E0150DC
:100CA0005320696E28EC13F0320E0001866F000E9F
:100CB000876F40EC10F06FEC13F0005201E001D0B0
:100CC00069D71200D00E7E6EEDEC13F00001806B40
:100CD00026EC0FF0D00E7E6E54EC13F07E6A6AECB8
:100CE0000FF07E6A6AEC0FF000C050F0FF0E7E6ECF
:100CF0006AEC0FF000C055F0040E006E50C051F0C9
:100D0000000E526E0F0E5116000E521650C000F01B
:100D1000000E016EF00E0014036E01C004F0000E10
:100D2000041603C000F004C001F001320032019E3D
:100D300001320032019E01320032019E0132003246
:100D4000019E0A0E046E000E056E20EC0EF000509F
:100D500051260150522255C053F0000E546E0F0E12
:100D60005316000E541655C000F0000E016E300EE2
:100D70000014036E01C004F0000E041603C000F05E
:100D800004C001F001320032019E01320032019EA6
:100D900001320032019E01320032019E0A0E046EC1
:100DA000000E056E20EC0EF0005053260150542228
:100DB0003DEC12F053C000F054C001F0640E046E1C
:100DC000000E056E20EC0EF000505124686E0150AC
:100DD0005220696E28EC13F0320E0001866F000E6F
:100DE000876F40EC10F06FEC13F0005201E001D07F
:100DF00069D71200500E5D6E000E5E6E7AEC10F038
:100E0000001E01E08CD0000E511802E1000E5018B7
:100E1000FF0ED8A4000E016E000E511802E1010E63
:100E20005018FF0ED8A4000E006E0150001001E013
:100E300009D0590E5D6E000E5E6EFF0E5F6E97EC70
:100E40000EF0D8D7000E511802E1010E5018FF0E17
:100E5000D8A4000E526E546A556AFF0E566E010EEB
:100E6000576E580E5D6E000E5E6E7AEC10F0001E2E
:100E700001E055D05550595C02E15450585C000EC9
:100E8000D8B0FF0E016E5950575C02E15850565CC5
:100E9000000ED8B0FF0E006E0150001601E009D020
:100EA000560E5D6E000E5E6EFF0E5F6E97EC0EF0DE
:100EB000D8D75A0E5D6E000E5E6E7AEC10F0001EF2
:100EC00001E02DD059505B5C02E158505A5C000E95
:100ED000D8B0FF0E016E5B50575C02E15A50565C71
:100EE000000ED8B0FF0E006E0150001601E009D0D0
:100EF000560E5D6E000E5E6EFF0E5F6E97EC0EF08E
:100F0000D8D7FF0E5D6E52C05EF058C05FF059C07A
:100F100060F05AC061F05BC062F0B5EC09F01200FD
:100F2000F7EC10F0001E09E0570E5D6E000E5E6ECD
:100F3000FF0E5F6E97EC0EF075D0500E5D6E000EDA
:100F40005E6E7AEC10F0001E01E06CD0000E006EB8
:100F50005150005C02E15050590803E204EC10F0DB
:100F600061D0520E5D6E000E5E6E7AEC10F0001EC7
:100F700001E058D0000E006E5350005C02E1525068
:100F8000590803E204EC10F04DD05150535C02E1DB
:100F90005050525C03E204EC10F044D0686A696A75
:100FA000FF0E6A6ED3EC0CF050C054F051C055F0F7
:100FB0005550535C02E15450525C34E3090E006E0C
:100FC00054C056F055C057F0005005E056365690C4
:100FD0005736FF0FFAD77E6A24EC14F000C07EF07B
:100FE000EDEC13F0910E0001806F26EC0FF057C06E
:100FF00080F026EC0FF0FF0E56140001806F26ECF7
:101000000FF03DEC12F0756AAFEC12F0756AFBEC74
:1010100012F05550531802E15250541803E0544A4C
:10102000552AC6D712009ECF02F0010E02160250BA
:10103000000A01E177D09ECF02F0010E02160252A3
:10104000D8B470D00F0E8014046E04C04AF02B0E7A
:10105000026E000E036E2EC000F0000E016E0050F6
:101060000224E96E01500320EA6EE9CFE9FFEACFDE
:10107000EAFFEECF00F0001E0450001600C04BF057
:10108000010E0014026E025204E02EC04CF071EC0E
:101090000EF0026A4BB2022A025205E02E50030FF4
:1010A0004C6E71EC0EF0026A4BB4022A025205E05B
:1010B0002E50060F4C6E71EC0EF0026A4BB6022AEF
:1010C000025205E02E50090F4C6E71EC0EF02E50BE
:1010D000000A04E1819A818C819E0ED02E50010A73
:1010E00004E1819A819C818E07D02E50020A04E18E
:1010F000818A819C819E00D02B0E026E000E036EB1
:101100002EC000F0000E016E00500224E16E01506E
:101110000320E26E4AC0E6FF2E2A2E50030AD8B4FE
:101120002E6A9E901200755209E0640E766EC50E0E
:10113000776E030E786E000E796E08D0440E766ED0
:10114000C50E776ED10E786E410E796E000E3D1889
:1011500002E1000E3C1802E1768030D0000E006EF5
:101160003D50005C02E13C50080808E33C50080890
:101170007A6E3DC07BF0000E7B5602D07A6A7B6AA5
:10118000010E7A14016E0150000A03E17996CAEF4C
:1011900008F07986016A7AB2012A0150000A03E157
:1011A0007998D4EF08F07988016A7AB4012A01505D
:1011B000000A03E1799ADEEF08F0798A0001816B79
:1011C00076C082F077C083F078C084F079C085F073
:1011D00068EC0DF075520DE0FF0E0001816FD90E25
:1011E000826F240E836FD10E846F010E856F68ECC1
:1011F0000DF012006D6A6E6A68C0E1FF69C0E2FF1F
:10120000E66AE66A6A6A6B6ABCEC0EF000C06CF0D3
:101210006C50FF0A01E001D0F7D76C500A0A14E1C4
:10122000000E6E1802E1000E6D1805E1020E6A6EE6
:10123000000E6B6E3AD06D6A6E6A68C0E1FF69C0DD
:10124000E2FFE66AE66A2FD06C500B0A10E1000E4E
:101250006E1802E1000E6D1805E1030E6A6E000EB5
:101260006B6E23D0010E6A6E000E6B6E1ED068C0CE
:10127000E9FF69C0EAFFEECF00F0EECF01F00A0E01
:10128000046E000E056E20EC0EF06C500026D8B0F7
:10129000012A68C0E1FF69C0E2FF00C0E6FF01C0AB
:1012A000E6FF6D4A6E2A0001AFD76AC000F06BC03E
:1012B00001F01200FF0E756E93EC08F0501C09E06F
:1012C000430E5D6E000E5E6E7AEC10F0001E01E0C3
:1012D0004BD078EC14F0070E006E43C054F044C0BD
:1012E00055F0005005E0543654905536FF0FFAD7AC
:1012F000FF0E7E6E24EC14F000C07EF0EDEC13F0D7
:10130000A90E0001806F26EC0FF055C080F026EC8E
:101310000FF0FF0E54140001806F26EC0FF03DEC2F
:1013200012F0FF0E756E520E766E000E776EC5ECE3
:101330000BF000C051F052C068F053C069F028ECC7
:1013400013F06FEC13F0005205E0FF0E756EAFEC7A
:1013500012F008D0200E5114016E0150000A01E075
:1013600001D0DFD781EC14F0120078EC14F05DC0EE
:1013700068F05EC069F06A6AD3EC0CF0070E006E8C
:101380005FC065F060C066F0005005E065366590AE
:101390006636FF0FFAD75DC07EF024EC14F000C073
:1013A0007EF0EDEC13F0910E0001806F26EC0FF053
:1013B00066C080F026EC0FF0FF0E65140001806F10
:1013C00026EC0FF03DEC12F05DC075F0630E766E0A
:1013D000000E776EC5EC0BF000C0D8FF63C068F05C
:1013E00064C069F028EC13F06250645C02E1615063
:1013F000635C000ED8B0FF0E676E6FEC13F06750A1
:10140000001005E05DC075F0AFEC12F001D0DCD744
:101410005DC075F0FBEC12F081EC14F0120068C0B6
:1014200075F0FBEC12F068C075F093EC08F0070E55
:10143000006E69C070F06AC071F0005005E070364F
:1014400070907136FF0FFAD768C07EF024EC14F06C
:1014500000C07EF0EDEC13F0A90E0001806F26ECC9
:101460000FF071C080F026EC0FF0FF0E7014000139
:10147000806F26EC0FF03DEC12F06E5202E004ECAF
:1014800010F068C075F0720E766E000E776EC5ECC7
:101490000BF000C06FF06C50735C02E16B50725C3B
:1014A000000ED8B0FF0E746E6FEC13F06D50001686
:1014B0007450001004E068C075F0AFEC12F0200E1C
:1014C0006F14016E0150000A01E001D0DAD712005A
:1014D000500E5D6E000E5E6E7AEC10F0001E01E0A4
:1014E00047D05150411802E14050501809E0580EC1
:1014F0005D6E000E5E6EFF0E5F6E97EC0EF038D0E4
:10150000500E5D6E000E5E6E7AEC10F0001E01E073
:101510002FD0030E515C02E1E80E505C09E2580E38
:101520005D6E000E5E6EFF0E5F6E97EC0EF020D0CB
:1015300050C052F051C053F0500E5D6E000E5E6E02
:101540007AEC10F0001E01E013D05150531802E164
:101550005250501803E004EC10F00AD052C040F092
:1015600053C041F052C05DF053C05EF0C8EC0FF0C4
:1015700012005EEC14F04D0E506E000E516E4EECEB
:1015800012F00050010A01E01BD04E50411802E158
:1015900040504D1815E0686A860E696E010E6A6E3D
:1015A0008F0E6B6E010E6C6E6D6A6E6A0FEC0AF038
:1015B000540E5D6E000E5E6EFF0E5F6E97EC0EF0C9
:1015C0004E50411802E140504D1801E101D0D3D7EF
:1015D0004CEC14F0520E5D6E000E5E6E5F6A97EC7E
:1015E0000EF0686A680E696E010E6A6E790E6B6E97
:1015F000010E6C6EFF0E6D6E6E6A0FEC0AF012003B
:10160000506A5050040816E3510E5D6E000E5E6E77
:1016100050C000F0000E016E00505D2601505E22A9
:101620007AEC10F0001E01E02FD05050040A02E0C6
:10163000502AE7D7140E7E6EEDEC13F0010E000178
:10164000806F26EC0FF0506A505004081BE3510ED7
:10165000026E000E036E50C000F0000E016E0050CE
:101660000224E96E01500320EA6EE9CFE9FFEACFD8
:10167000EAFFEECF80F026EC0FF05050040A02E0B3
:10168000502AE2D73DEC12F01200F7EC10F0001EE9
:1016900009E0570E5D6E000E5E6EFF0E5F6E97ECFA
:1016A0000EF034D0500E5D6E000E5E6E7AEC10F0CF
:1016B000001E01E02BD050C068F051C069F0BFECB3
:1016C00012F0040E0024616E000E0120626E5D6A4D
:1016D0005E6A00C05FF001C060F0B5EC09F067EC35
:1016E00014F0E80E0001866F030E876F40EC10F0D7
:1016F00050C068F051C069F028EC13F050C05DF0A4
:1017000051C05EF05F6A97EC0EF0CCD71200686AA9
:10171000696A37EC13F000C052F0140E0001866FB6
:10172000000E876F40EC10F0010E686E000E696EBF
:1017300037EC13F000C053F0140E0001866F000E5A
:10174000876F40EC10F053C002F0000E036E02C031
:1017500003F0026A52C000F0000E016E0050022633
:101760000150032202C050F003C051F00350FF0AA1
:1017700002E1FF0E021804E1D20E506E040E516E0B
:1017800050C000F051C001F0120075C07EF024EC92
:1017900014F000C07EF054EC13F07E6A6AEC0FF097
:1017A00000C078F07E6A6AEC0FF000C079F0FF0E9E
:1017B0007E6E6AEC0FF079C003F0000E046E03C079
:1017C00004F0036A00500326D8B0042A070E026E04
:1017D00003C000F004C001F0025005E00132003205
:1017E000019EFF0FFAD776C0E1FF77C0E2FF00C08D
:1017F000E6FF01C0E6FF3DEC12F078C000F01200F9
:10180000500E5D6E000E5E6E7AEC10F0001E01E070
:101810002CD050C05DF051C05EF00AEC13F0520EB7
:101820005D6E000E5E6E7AEC10F0001E01E01DD0C1
:1018300052C05DF053C05EF00AEC13F0FF0E0001E1
:10184000816F50C082F051C083F052C084F053C009
:1018500085F068EC0DF078EC14F06FEC13F00052AA
:1018600001E001D0FAD781EC14F01200500E5D6E49
:10187000000E5E6E7AEC10F0001E01E02BD050C01E
:101880005DF051C05EF00AEC13F0520E5D6E000E7A
:101890005E6E7AEC10F0001E01E01CD052C05DF0CC
:1018A00053C05EF00AEC13F00001816B50C082F06F
:1018B00051C083F052C084F053C085F068EC0DF045
:1018C00078EC14F06FEC13F0005201E001D0FAD77D
:1018D00081EC14F01200510E5D6E000E5E6E7AEC1B
:1018E00010F0001E01E02BD0000E521802E1000E95
:1018F0005118FF0ED8A4000E016E000E006E52505B
:10190000005C02E151500708FF0ED8B0000E006ED7
:101910000150001003E004EC10F011D051C050F061
:10192000D00E7E6EEDEC13F0030E0001806F26ECFE
:101930000FF050C080F026EC0FF03DEC12F01200DA
:10194000516A526A7BEC14F0530E686E000E696E99
:10195000FAEC08F000C050F00050020A01E122D079
:101960005050030A03E1514A522A04D053C051F0A7
:1019700054C052F078EC14F051C068F052C069F0D5
:1019800028EC13F051C075F052C076F055EC11F010
:1019900000C05DF001C05EF05F6A97EC0EF081EC74
:1019A00014F0D0D71200695209E0440E6B6E220E7B
:1019B0006C6E400E6D6E410E6E6E08D0450E6B6EF5
:1019C000C40E6C6E400E6D6E410E6E6E6A52D8A4DF
:1019D0006D800001816B6BC082F06CC083F06DC0C4
:1019E00084F06EC085F068EC0DF068520DE0FF0EDB
:1019F0000001816F210E826F3A0E836F410E846F5A
:101A0000010E856F68EC0DF01200C26A0F0EC16EF8
:101A1000EF0E926E806A936A816AF18E180E946E50
:101A2000826A2B6A2C6A2D6A2E6A2A6A156A3E6AB5
:101A3000FF0E466EFF0E476E426A170ED56E010E00
:101A4000CD6E9D80C00EF26E200E506EFF0E516E58
:101A50009FEC12F087EC0BF000C040F001C041F0A9
:101A6000080E3C6E000E3D6EFF0E3F6E1200500ED3
:101A70005D6E000E5E6E7AEC10F0001E01E027D065
:101A8000510E5D6E000E5E6E7AEC10F0001E01E0ED
:101A90001ED0FF0E7E6E24EC14F000C07EF0EDEC44
:101AA00013F050C080F026EC0FF052C080F026EC0E
:101AB0000FF0FF0E51140001806F26EC0FF03DEC8B
:101AC00012F051C05DF052C05EF00AEC13F012004B
:101AD00081C07EF024EC14F000C07EF0EDEC13F039
:101AE000820E0001806F26EC0FF083C080F026ECA0
:101AF0000FF0FF0E00018215806F26EC0FF081C001
:101B00007EF024EC14F000C07EF0EDEC13F0830EB8
:101B10000001806F26EC0FF085C080F026EC0FF0FE
:101B2000FF0E00018415806F26EC0FF03DEC12F0E3
:101B30001200500E5D6E000E5E6E7AEC10F0001E0C
:101B400001E026D0510E5D6E000E5E6E7AEC10F054
:101B5000001E01E01DD07E6A24EC14F000C07EF06F
:101B6000EDEC13F050C080F026EC0FF052C080F086
:101B700026EC0FF0FF0E51140001806F26EC0FF0E1
:101B80003DEC12F051C05DF052C05EF00AEC13F073
:101B90001200536A546A7BEC14F0510E686E000E0A
:101BA000696EFAEC08F000C050F00050020A01E142
:101BB0001CD05050030A03E1534A542A04D051C0A8
:101BC00053F052C054F078EC14F053C068F054C095
:101BD00069F028EC13F053C05DF054C05EF05F6A0A
:101BE00097EC0EF081EC14F0D6D71200500E5D6E1B
:101BF000000E5E6E7AEC10F0001E01E020D0510E57
:101C00005D6E000E5E6E7AEC10F0001E01E017D0E3
:101C1000520E5D6E000E5E6E7AEC10F0001E01E05A
:101C20000ED050C07EF0EDEC13F051C075F052C0F4
:101C300076F053C077F0ECEC12F03DEC12F01200AD
:101C400000010B6A0A6A096A00500402F4CF09F025
:101C5000F3CF08F001500502F4CF0BF0F3CF0AF0F8
:101C600000500502F3500926F4500A22E86A0B22BC
:101C700001500402F3500926F4500A22E86A0B22AC
:101C800008C000F009C001F00AC002F00BC003F068
:101C90001200500E5D6E000E5E6E7AEC10F0001EAB
:101CA00001E01ED0510E5D6E000E5E6E7AEC10F0FB
:101CB000001E01E015D0520E5D6E000E5E6E7AECD5
:101CC00010F0001E01E00CD050C07EF0EDEC13F0DF
:101CD00051C05DF052C05EF055EC14F03DEC12F0D6
:101CE00012001550140A01E121D04C500A0A02E1F9
:101CF0004C6A06D04C500B0A02E180EF0EF04C2AE1
:101D0000160E026E000E036E2AC000F0000E016E69
:101D100000500224E16E01500320E26E4CC0E6FF49
:101D20002A2A152A2A50140AD8B42A6A1200FF0E49
:101D30005E1802E1FF0E5D1801E11DD05DC068F084
:101D40005EC069F0BFEC12F0040E00246B6E000E52
:101D500001206C6E686A00C069F001C06AF06D6AAB
:101D60005FC06EF00FEC0AF0F40E0001866F010EFA
:101D7000876F40EC10F01200FF0E756E9D901550AD
:101D8000000A1AE0160E026E000E036E3EC000F04E
:101D9000000E016E00500224E96E01500320EA6E2D
:101DA000E9CFE9FFEACFEAFFEECF75F03E2A3E50D9
:101DB000140AD8B43E6A15069D8075C000F0120062
:101DC000396A3A5217E03EEC11F000520BE004EC95
:101DD00012F048EC0FF0005203E0FF0E396E12D003
:101DE00042EC14F00A0E0001866F000E876F40EC83
:101DF00010F0E9D748EC0FF0005201E001D0FAD71B
:101E0000FF0E396E1200A6CF01F0000E01B2010ED6
:101E1000016E0150010A02E10000F5D7A69C69C0DD
:101E200000F000C0AAFFFF0E6814A96E6AC0A8FFE8
:101E3000A69EA684F2CF6BF0F29E550EA76EAA0E58
:101E4000A76EA6826BC0F2FFA694120080C0C9FFE5
:101E5000C6CF01F0000E01BE010E016E015203E07B
:101E6000010E3B6EC69E9ECF01F0000E01B6010E24
:101E7000016E0150000AF7E09E96C5CF01F0000EFA
:101E800001BC010E016E015202E0020E3B6E120017
:101E90000001866B9E96A196C58000019ECF01F041
:101EA000000E01B6010E016E0150000A0CE1A1CF37
:101EB00001F0000E01B6010E016E015202E0A19682
:101EC00006D00001EAD700019E96FF0E866F86C0FD
:101ED00000F01200C5869ECF01F0000E01B6010E83
:101EE000016E0150000AF7E09E96C9CF7FF07E5246
:101EF00003E0C58A7DEF0FF0C59AC5889ECF01F03B
:101F0000000E01B6010E016E0150000AF7E09E9628
:101F10007FC000F01200500E5D6E000E5E6E7AEC17
:101F200010F0001E01E015D0240E7E6EEDEC13F0D3
:101F30005050000A06E1010E5D6E5E6A55EC14F029
:101F400006D0010E5D6E800E5E6E55EC14F03DEC19
:101F500012F01200240E7E6EEDEC13F0070E5D6E93
:101F6000200E5E6E55EC14F03DEC12F06FEC13F0A9
:101F7000005201E001D0FAD7240E7E6EEDEC13F092
:101F8000070E5D6E5E6A55EC14F03DEC12F0120027
:101F9000686A696AFF0E5D146A6E03EC0FF0140E36
:101FA0000001866F000E876F40EC10F0010E686E26
:101FB000000E696E5EC06AF003EC0FF0140E0001B3
:101FC000866F000E876F40EC10F01200501C09E085
:101FD000450E5D6E000E5E6E7AEC10F0001E01E0A4
:101FE00012D045C07EF054EC13F0FF0E7E6E6AEC0A
:101FF0000FF000C051F03DEC12F051C068F0000E3F
:10200000696E28EC13F01200756A7550040817E326
:1020100078EC14F02C0E0001866F010E876F40ECF7
:1020200010F07EEC14F02C0E0001866F010E876F0D
:1020300040EC10F07550040A02E0752AE6D781ECF6
:1020400014F012000001086A096A100E0C6E0134C7
:10205000083609360450085E0550D8A0053C095ED4
:10206000D8B03AEF10F0045008260550D8B0053C1F
:102070000926D890003601360C2E27EF10F01200FA
:102080000001886B896B010E865D8A6F000E87598F
:102090008B6F89518B5D02E188518A5D0CE37FEC87
:1020A00012F0000189518B1902E18A51881903E06D
:1020B000884B892BE8D700011200500E5D6E000E90
:1020C0005E6E7AEC10F0001E01E013D0510E5D6ED2
:1020D000000E5E6E7AEC10F0001E01E00AD050C0D7
:1020E0007EF0EDEC13F051C080F026EC0FF03DECEB
:1020F00012F012007BEC14F05DC068F05EC069F075
:10210000FAEC08F000C060F06050030A01E001D072
:10211000F3D778EC14F06050010AFF0ED8A4000E3B
:102120005F6E5FC000F01200500E5D6E000E5E6EBE
:102130007AEC10F0001E01E010D05150411802E17D
:102140004050501802E1421E08D0580E5D6E000E3D
:102150005E6EFF0E5F6E97EC0EF01200500E5D6E1D
:10216000000E5E6E7AEC10F0001E01E00FD0280E1B
:102170007E6EEDEC13F0030E0001806F26EC0FF085
:1021800050C080F026EC0FF03DEC12F01200500E23
:102190005D6E000E5E6E7AEC10F0001E01E00ED057
:1021A000140E7E6EEDEC13F00001806B26EC0FF048
:1021B00050C080F026EC0FF03DEC12F01200500EF3
:1021C0005D6E000E5E6E7AEC10F0001E01E00ED027
:1021D000FF0E7E6E24EC14F000C07EF0EDEC13F0E8
:1021E00050C080F026EC0FF03DEC12F01200020E11
:1021F000686E000E696E37EC13F00050FF0A04E1C0
:10220000FF0E5D6E05EF11F05D6A140E0001866F22
:10221000000E876F40EC10F05DC000F01200500E11
:102220005D6E000E5E6E7AEC10F0001E01E00ED0C6
:10223000240E7E6EEDEC13F0030E756E50C076F03A
:1022400051C077F0ECEC12F03DEC12F01200500EA1
:102250005D6E000E5E6E7AEC10F0001E01E00DD097
:102260007E6A24EC14F000C07EF0EDEC13F050C058
:1022700080F026EC0FF03DEC12F012000001866BAE
:10228000C7CF01F0000E01B4010E016E0150000A2B
:1022900008E11F0EC514016E0150000A02E1FF0E95
:1022A000866F000186C000F01200000E006E7650AE
:1022B000005C02E17550590805E375C077F076C0FF
:1022C00078F004D0FF0E776EFF0E786E77C000F0C6
:1022D00078C001F012003F1C006E00C03FF00052B9
:1022E00008E0510E5D6E000E5E6E5F6A97EC0EF0B8
:1022F00007D0500E5D6E000E5E6E5F6A97EC0EF0BA
:102300001200500E5D6E000E5E6E7AEC10F0001E34
:1023100001E00CD0240E7E6EEDEC13F0020E5D6E2B
:1023200050C05EF055EC14F03DEC12F01200500E6F
:102330005D6E000E5E6E7AEC10F0001E01E00CD0B7
:10234000240E7E6EEDEC13F0010E5D6E50C05EF05B
:1023500055EC14F03DEC12F01200500E5D6E000EC4
:102360005E6E7AEC10F0001E01E00CD0240E7E6E42
:10237000EDEC13F0040E5D6E50C05EF055EC14F001
:102380003DEC12F01200530E5D6E000E5E6E5F6A41
:1023900097EC0EF0686A7A0E696E010E6A6E850E11
:1023A0006B6E010E6C6EFF0E6D6E6E6A0FEC0AF0B6
:1023B0001200500E5D6E000E5E6E7AEC10F0001E84
:1023C00001E00CD0240E7E6EEDEC13F0070E5D6E76
:1023D00050C05EF055EC14F03DEC12F01200500EBF
:1023E0005D6E000E5E6E7AEC10F0001E01E00BD008
:1023F000240E7E6EEDEC13F05D6A50C05EF055EC7D
:1024000014F03DEC12F012009D96A096C69A351C71
:1024100009E0640EC86EF9EC13F0C8CF36F0C6CFF1
:1024200037F004D036C0C8FF37C0C6FF12007CC0EA
:102430007EF024EC14F000C07EF054EC13F0FF0E9C
:102440007E6E6AEC0FF000C07DF03DEC12F07DC0B6
:1024500000F01200500E5D6E000E5E6E7AEC10F011
:10246000001E01E009D0000E511802E1010E5018C3
:1024700001E002D0CEEC12F01200396AC5849ECF82
:1024800001F0000E01B6010E016E0150000AF7E0E6
:102490009E963A5202E042EC14F0120081EC14F0E5
:1024A00050C068F051C069F0FAEC08F000C053F079
:1024B00078EC14F053C052F052C000F012005DC02E
:1024C0007EF024EC14F000C07EF0EDEC13F0800EF2
:1024D0000001806F26EC0FF03DEC12F01200500E60
:1024E0005D6E000E5E6E7AEC10F0001E01E006D00C
:1024F00050C05DF051C05EF00AEC13F012000D0EFA
:102500000B6EFF0E0A6E0B2E01D003D00A2EFED7E3
:10251000FAD7F30E0A6E0A2EFED700001200500EF4
:102520005D6E000E5E6E7AEC10F0001E01E006D0CB
:1025300050C068F051C069F028EC13F01200356A01
:10254000396A3B6A51C03AF050C038F004EC12F0DE
:10255000515202E042EC14F0FF0E356E120075C0CD
:102560007EF024EC14F000C07EF0EDEC13F0800E51
:102570000001806F26EC0FF03DEC12F0120068C0F5
:102580006AF069C06BF06A366A906B366A366A9098
:102590006B366AC000F06BC001F01200020E686E6C
:1025A000000E696E6A6A03EC0FF0140E0001866F6C
:1025B000000E876F40EC10F01200FF0E756E500E8B
:1025C000766E000E776EC5EC0BF050C068F051C00F
:1025D00069F028EC13F0120075C080F026EC0FF0C3
:1025E000FF0E76140001806F26EC0FF077C080F0AC
:1025F00026EC0FF0120075C07CF017EC12F000C052
:1026000076F0200E7614016E0150000A01E001D030
:10261000F2D71200280E7E6EEDEC13F0040E756EEC
:102620005DC076F05EC077F0ECEC12F03DEC12F09D
:1026300012005DC07EF024EC14F000C07EF0EDECE2
:1026400013F00001806B26EC0FF03DEC12F012004D
:10265000280E7E6EEDEC13F0020E756E68C076F0FB
:1026600069C077F0ECEC12F03DEC12F01200A69C81
:1026700069C000F000C0AAFFFF0E6814A96EA69EF4
:10268000A680A8CF6AF06AC000F01200756A500EEA
:10269000766E000E776EC5EC0BF050C068F051C03E
:1026A00069F028EC13F01200395203E0BDEC13F08E
:1026B00002D0E0EC0EF0010E7E100001806F26ECDF
:1026C0000FF012000001816B440E826F220E836FA7
:1026D000400E846F410E856F68EC0DF01200FF0E06
:1026E000756E9D901550000A000ED8A4FF0E756EF1
:1026F0009D8075C000F01200280E7E6EEDEC13F088
:10270000010E5D6E040E5E6E55EC14F03DEC12F0A1
:102710001200280E7E6EEDEC13F0010E5D6E060EBB
:102720005E6E55EC14F03DEC12F01200280E7E6E39
:10273000EDEC13F0010E5D6E030E5E6E55EC14F0C1
:102740003DEC12F01200280E7E6EEDEC13F0010E3F
:102750005D6E020E5E6E55EC14F03DEC12F0120050
:10276000280E7E6EEDEC13F0010E5D6E010E5E6EB6
:1027700055EC14F03DEC12F01200C5829ECF01F032
:10278000000E01B6010E016E0150000AF7E09E96A0
:102790001200280E7E6EEDEC13F0010E5D6E5E6A87
:1027A00055EC14F03DEC12F01200140E7E6EEDECC0
:1027B00013F0030E0001806F26EC0FF03DEC12F0D9
:1027C0001200140E7E6EEDEC13F0050E0001806F0A
:1027D00026EC0FF03DEC12F01200395203E0BDEC94
:1027E00013F002D0E0EC0EF07EC080F026EC0FF08B
:1027F0001200949894968B988B9694889486C79E92
:10280000C79C380EC66E1200280E7E6EEDEC13F0DB
:102810000001806B26EC0FF03DEC12F01200FF0E71
:102820007C6E17EC12F000C05DF0000E5E6E0AECDC
:1028300013F012007C6A17EC12F000C05DF0000E7D
:102840005E6E0AEC13F012007E5203E0820E7F6E81
:1028500002D0800E7F6E7FC000F012003C0E5D6ED5
:10286000000E5E6E7AEC10F0001E01E000D0120047
:1028700005EC0DF0B9EC0AF033EC00F0C3EC11F00C
:10288000F9D7FFD7C69A38C0C8FF360EC66EC58EB8
:102890009E969D86A0961200828E5D6A5FEC12F075
:1028A000FF0E5D6E5FEC12F012005DC080F026EC52
:1028B0000FF05EC080F026EC0FF012005D6A19EC9C
:1028C00013F0FF0E5D6E19EC13F0829E12006FEC98
:1028D00013F0005203E0BCEC0EF0F9D71200FF0E2B
:1028E000756EAFEC12F01200756AAFEC12F01200C8
:1028F000829A828C1200828A828C1200829A829C36
:102900001200828A829C120012001200FFFFFFFF59
:020000040030CA
:0E000000FFF6FEFEFF79BBFFFFFFFFFFFFFFD5
:00000001FF
