:10000000AE28FF3FFF3FFF3FFF00030E8301A2002A
:100010000408A1000A08A3008A017108AC00700856
:10002000AB0000300B190130F100710803191B28D7
:100030000130A0000B112C08F1002B08F000230860
:100040008A0021088400220E8300FF0E7F0E090023
:10005000023003138312FB00FF30FA00FB0B312840
:100060003428FA0B31282E284A30FA00FA0B3628A9
:10007000080003138312A701A80101302502A9007B
:100080000030031C013F2602AA0028082A02031D93
:100090004B2827082902031C5A28282028082A064A
:1000A000031D54282908270603195A28A70A0319EB
:1000B000A80A45280800003003138312051B0130ED
:1000C000F2007208013AFF30031D0030F1002008F1
:1000D000003AFF30031D0030F0007108F005700891
:1000E000031D5B282008013A031D77287F28003074
:1000F000051B0130F1007108003A03197728080048
:100100000313831206113230A500A6013920861090
:1001100006100030851B0130F1007108013A031907
:100120008928061486143230A500A6013920061548
:10013000080003138312A001FF3081000611323042
:10014000A500A601392086140610000006145B20C5
:100150003230A500A6013920061508000730031328
:1001600083129F00E83083168100A0308B00FF309F
:100170008500F03086000730831286000030851A33
:100180000130F1007108A4000030851B0130F1003E
:100190007108013AFF30031D0030F2000030851A6B
:1001A0000130F1007108003AFF30031D0030F0000B
:1001B0007208F00570080319E028861580201A29B6
:1001C0000030061A0130F1007108013AFF30031DBA
:1001D0000030F2000030851A0130F1007108013A58
:1001E000FF30031D0030F00070087205F300240892
:1001F000003AFF30031D0030F2000030851A013054
:10020000F1007108013AFF30031D0030F000720860
:10021000F0057308F004700803191A29861599204F
:100220000030061A0130F1007108003A031D192947
:100230001A29102986110030851A0130F100710841
:10024000A400C4282229FF3FFF3FFF3FFF3FFF3F9D
:02400E00503F21
:00000001FF
